:100A2A0076617279696E672072616E6765002075FA
:0E0A3A006E64657220776F726B696E672000C4
:0C0A7800021C0030021E00640220000A74
:1009EA00E4FDFCC3ED9FEC9E5015E4FBFA0BBB0043
:0F09FA00010ABA04F8BBFBF50DBD00010C80E447
:010A090022CA
:10097500E4F580F5A0F5B07590FF120A697F0112C4
:100985000A487BFF7A0A792A1209A17FC0120A4810
:0C0995001209307F647E001209EA80E144
:10093000AF907508008F09AE087C007D64120A0A2A
:10094000AE08AF097C007D641208197E007F0ACFD3
:10095000CDCFCECCCE120A0AAE08AF097C007D0AFC
:10096000120819E51D2DF50DE51C3C120A157F0A2C
:050970007E000209EA0F
:1009C600C3E5099464E5086480948050167F01129B
:1009D6000A487BFF7A0A79381209A17FC0120A48B1
:0409E60012093022A0
:100A48008F22120A59852280D2A5C2A7C2A6C2A5A2
:010A5800227B
:0F0A0A00120819E51D2FF50DE51C3EF50CAF0D7B
:100A19008F25120A59852580D2A5D2A7C2A6C2A5BB
:010A290022AA
:0F0A5900D287C2A7D2A6C2A5D2A530870280F746
:010A6800226B
:0F0A69007F38120A487F0F120A487F01020A489D
:1009A1008B228A238924AB22AA23A924120800605E
:1009B100130524E5247002052314F9120800FF121F
:0509C1000A1980E2228A
:030000000208A44F
:0C08A400787FE4F6D8FD7581250208EB92
:10080000BB010689828A83E0225002E722BBFE02F6
:09081000E32289828A83E4932229
:10081900C2D5EC30E709B2D5E4C39DFDE49CFCEEFA
:1008290030E715B2D5E4C39FFFE49EFE12084FC31B
:10083900E49DFDE49CFC800312084F30D507C3E416
:060849009FFFE49EFE2269
:1008B000020975E493A3F8E493A34003F68001F2E0
:1008C00008DFF48029E493A3F85407240CC8C33349
:1008D000C4540F4420C8834004F456800146F6DF18
:1008E000E4800B0102040810204080900A78E47E26
:1008F000019360BCA3FF543F30E509541FFEE4930D
:10090000A360010ECF54C025E060A840B8E493A3D3
:10091000FAE493A3F8E493A3C8C582C8CAC583CAFE
:10092000F0A3C8C582C8CAC583CADFE9DEE780BEB6
:010A84000071
:10084F00BC000BBE0029EF8DF084FFADF022E4CC8D
:10085F00F875F008EF2FFFEE33FEEC33FCEE9DEC56
:10086F00984005FCEE9DFE0FD5F0E9E4CEFD22ED9C
:10087F00F8F5F0EE8420D21CFEADF075F008EF2FE6
:10088F00FFED33FD4007985006D5F0F222C398FDD7
:05089F000FD5F0EA2274
:00000001FF
